:10000000E8C002C101C100C1FFC0FEC075C3FCC091
:10001000FBC0FAC0F9C0F8C0F7C0F6C0F5C0F4C024
:10002000F3C0C2C2F1C06FC17AC10DC20CC20BC213
:100030000AC209C208C207C206C278C179C182C118
:1000400089C198C100C2A0C1A6C1FDC1FCC1ADC19A
:10005000B0C1B3C1B6C1B9C1BCC1BFC1C2C1C5C1C4
:10006000ECC1F1C1F0C1EFC1EEC1EDC1ECC1EBC11A
:10007000EAC1E9C1E8C1E7C1E6C1E5C1E4C1E3C144
:10008000E2C1E1C1E0C1DFC1DEC13BC132C1DBC1C0
:10009000DAC1D9C134C112C220C225C280C27FC216
:1000A0007EC27DC27CC27BC22BC279C278C277C2BB
:1000B00076C233C23FC273C250C22EC9BFC9FCC987
:1000C00053CAA6CAAECAB3CA07CBAAAAAAAAAAAAE0
:1000D000AAAAAAAAAAAAAAAAAAAAAAAAAAAAAAAA80
:1000E000AAAAAAAAAAAAAAAAAAAA444444444444D4
:1000F00044444444444444444444444444444444C0
:1001000044444444444444444444101010101010E7
:1001100010101010101010101010101010101010DF
:10012000101010101010101010100001000100012C
:1001300000010001000100010001000100010001B7
:1001400000010001000100010001000001000000A9
:10015000010000000100000001000000010000009B
:10016000010000000100000001000000000001008B
:10017000000000000000010000000000000001007D
:10018000000000000000010000000000000000006E
:10019000000001000000000000000000000000005E
:1001A000000001000000000000000000000000004E
:1001B000000000000000000000000100000000003E
:1001C0000000000000000000000080402010080433
:1001D000020111241FBECFE5D4E0DEBFCDBF10E089
:1001E000A0E6B0E0E0EBFAE102C005900D92A23D7E
:1001F000B107D9F721E0A2EDB0E001C01D92A53A08
:10020000B207E1F7DCDB52CCFBCECF93DF9316B81D
:100210000FB6F894A89581B5886181BD11BC0FBE59
:1002200080E090E01DDCC82FD0E0DC2FCC27D093FD
:10023000DF00C093DE0081E090E012DCC82BCE012D
:1002400001978E3F9F4F28F4D093DF00C093DE00CC
:100250000FC080E090E29093DF008093DE0060E2C8
:1002600080E090E016DC6091DE0081E090E011DC3F
:100270002091DE003091DF0040E050E060E07BE163
:1002800087EB90E0CBDB3093D8002093D70081E060
:100290008EBD89B7806189BF82E090E0E1DB9DEF90
:1002A000980F953708F081E6880F82B986B78F7D61
:1002B00086BF86B7856486BF789410922A01109213
:1002C000DB001092DA00DF91CF910895CF93DF9396
:1002D000E091E000E83C08F4B4C08E2F90E0FC010F
:1002E000E85CF109E833F10508F0ADC0ED5EFF4FC1
:1002F000099480912A018093010181E0A5C08ADBE5
:10030000A3C082DBA1C084E090E0AADBC1E0D1E021
:10031000888385E090E0A4DB898382E095C083E058
:1003200090E09EDB8093010181E08EC06BDB8CC08E
:10033000E1E0F1E0108287EB81838BE1828313821D
:1003400084E082C0E1E0F1E081E080838AEF818394
:1003500082E07AC02091DA003091DB00E1E0F1E048
:100360008AEF91E0821B930B90838AEF821B81833B
:1003700082E06AC08091DA009091DB00E1E0F1E078
:100380009083818382E060C0E1E0F1E0108280E24E
:10039000818382E059C08091DE009091DF00E1E02E
:1003A000F1E09083818382E04FC01092010181E0EF
:1003B0004BC01092010181E047C01092010181E021
:1003C00043C01092010181E03FC01092010181E021
:1003D0003BC01092010181E037C01092010181E021
:1003E00033C01092010181E02FC0E1E0F1E0809183
:1003F0002101829580838091220182958183809161
:100400002301829582838091240182958383809148
:100410002501829584838091260182958583809130
:100420002701829586838091280182958783809118
:1004300029018295808789E007C01092010181E03F
:1004400003C0E4DA01C080E0DF91CF910895CF933B
:10045000C091E20084E090E003DBC8130AC0C091C1
:10046000E30085E090E0FCDA91E0C81390E0892F8A
:1004700001C080E0CF9108950F931F93CF93DF9336
:100480008091DC00882309F48AC02091E10030E0EB
:1004900090E002972817390709F081C08091E000A9
:1004A000883C08F47BC090E0FC01E85CF109E23193
:1004B000F10508F074C0E55BFF4F0994C8DF88239D
:1004C00009F46DC0C0EED0E06C8184E090E0E1DA28
:1004D0006D8185E090E0DDDA62C06091E20083E04A
:1004E00090E0D7DA5CC0B3DF882309F458C060918C
:1004F000E400862F880F82B982E090E0CADA4FC00C
:10050000A6DF882309F44BC098E088E10FB6F89481
:10051000A89581BD0FBE91BDFFCFE0EEF0E08281D6
:1005200090E0982F88272381822B9093DB00809383
:10053000DA0035C08CDF882391F1C6E0D0E000E01E
:1005400012E06FEFCE0194DA21960C171D07C9F760
:100550001092DB001092DA0022C0C0EED0E01A81C7
:10056000212F30E0322F22278B81282B3093DF0080
:100570002093DE0040E050E060E07BE187EB90E01C
:100580004DDA3093D8002093D700612F80E090E0BF
:1005900080DA6B8181E090E07CDA01C039DADF91AA
:1005A000CF911F910F9108951F920F920FB60F9246
:1005B00011242F933F934F935F936F937F938F9368
:1005C0009F93AF93BF93EF93FF9381B1887F803A5E
:1005D00009F447C028F4803641F0803859F045C00E
:1005E000883AD9F0883BF1F040C085EC86BF109284
:1005F000DC003DC0E091DC0081E08E0F8093DC00E8
:1006000093B1F0E0E052FF4F9083803218F485EC14
:1006100086BF2DC085E886BF2AC01092000156DE35
:100620008093D6008091D600811104C013B885E86C
:1006300086BF1DC0E091000181E08E0F8093000114
:10064000F0E0EF5FFE4F808183B9909100018091CF
:10065000D600981718F485EC86BF09C085E886BFD8
:1006600006C085EC86BF08DF02C085EC86BFFF911F
:10067000EF91BF91AF919F918F917F916F915F911A
:100680004F913F912F910F900FBE0F901F90189593
:100690008A5F9F4FE5D908958A5F9F4FFAD90895E1
:1006A0008A5F9F4FE5D90895CF93C091D900CC239D
:1006B00009F1B2D9E1E3F1E0828193818C0F911DC0
:1006C000938382838091D9008C1B8093D900808191
:1006D00091812091DE003091DF002817390730F03A
:1006E0000196909332018093310104C0109232013F
:1006F00010923101CF9108951F920F920FB60F9271
:1007000011242F933F938F939F93F8942AB53BB571
:100710008091D7009091D800820F931F9BBD8ABD16
:100720008091D9008F5F8093D90078949F918F91A9
:100730003F912F910F900FBE0F901F901895DF9251
:10074000EF92FF920F931F93CF93DF93009709F4DB
:1007500006C12091D100222309F401C18B01EC01D3
:10076000A3DFCE0195DFF801208130E0F901EE0F23
:10077000FF1FE20FF31FEE0FFF1FE85CFE4F90819B
:1007800095FB992790F9282F221F2227221F291332
:10079000D4C08F77E82EF12CF701EE0FFF1FEE0D7E
:1007A000FF1DEE0FFF1FEB5CFE4F808180FFC5C079
:1007B000CE0101966DDFD82ECE01029669DFD2FA06
:1007C000442740F99701220F331FF901EE0DFF1D59
:1007D000EE0FFF1FE85CFE4F908140FB95F9908380
:1007E000F901EE0DFF1DEE0FFF1FEB5CFE4F1582B2
:1007F00014829D2D96959D2590FD4AC0282F30E0AE
:10080000C701880F991FFC01EE0DFF1DEE0FFF1FA2
:10081000EB5CFE4F32832183FC01EE0DFF1DEE0FDA
:10082000FF1FE85CFE4FD694D694D6948081807EDC
:10083000D82AD082808185FF80C0F701EE0FFF1F8C
:10084000EE0DFF1DEE0FFF1FEB5CFE4F81819281CD
:10085000892B09F472C0C701880F991FFC01EE0DA6
:10086000FF1DEE0FFF1FEB5CFE4F218132813583B0
:10087000248321E030E032832183FC01EE0DFF1D53
:10088000EE0FFF1FE85CFE4F80818F7D808355C097
:10089000D0FE2BC09701220F331FF901EE0DFF1D73
:1008A000EE0FFF1FEB5CFE4F41815281BA01681BC6
:1008B000710972836183F901EE0DFF1DEE0FFF1FB9
:1008C000E85CFE4F8081D694D694D6948D19F901B8
:1008D000EE0DFF1DEE0FFF1FE85CFE4F982F9F717E
:1008E0008081807E892B808328C0F701EE0FFF1F57
:1008F000DF01AE0DBF1DAA0FBB1FAB5CBE4F119633
:100900002D913C911297A901480F511D12965C93AD
:100910004E931197DF01AE0DBF1DAA0FBB1FA85C40
:10092000BE4F8C91D694D694D6948D0DFD01982F00
:100930009F718081807E892B8083CE010396A8DE03
:10094000F82ECE010496A4DE2F2D30E0B901782BCD
:10095000CB01883F71E0970710F4B801F0DEDF911A
:10096000CF911F910F91FF90EF90DF9008950F931B
:100970001F93CF93DF938C01FC01C081CC0FCC0F70
:1009800082E08C0F90E084DED82F83E08C0F90E023
:100990007FDE8F3F21F0B8018D2F90E0D0DEDF9118
:1009A000CF911F910F910895EF92FF920F931F9394
:1009B000CF93DF931F92CDB7DEB719826894FF24DF
:1009C000F5F8EE24E39470DE898190E0FC01EE0FEF
:1009D000FF1FE80FF91FEE0FFF1FEB5CFE4F20819A
:1009E00020FD66C09C01220F331FF901E80FF91F9B
:1009F000EE0FFF1FE85CFE4F5081F901E059FF4FF9
:100A00000190F081E02D2081FC01E05AFF4F4081F0
:100A100055FB002700F910E030E002C0359527951E
:100A20004A95E2F7217033270217130709F440C0F3
:100A30009C01220F331FF901E80FF91FEE0FFF1F72
:100A4000E85CFE4F408145FB442740F940955081CA
:100A500040FB55F95083D901A80FB91FAA0FBB1F3E
:100A6000AB5CBE4F11962D913C91129740814F7116
:100A7000220F331F22953295307F3227207F322775
:100A8000242B232B81F0FC01EB56FE4F20812223E7
:100A900029F0FC01EB56FE4F108208C0FC01EB561A
:100AA000FE4FE08203C0CE01019661DFF0922A0181
:100AB00089818F5F8983803108F485CF0F90DF9122
:100AC000CF911F910F91FF90EF9008954F925F92F9
:100AD0006F927F928F929F92AF92BF92CF92DF924E
:100AE000EF92FF921F93CF93DF938091DA00909162
:100AF000DB008134910508F49CC06894442446F8D6
:100B0000512C720184E0E80EF11CC701C1DD8F3F5A
:100B100009F084C0C091DA00D091DB00C415D5057E
:100B200029F44090DA005090DB0078C06E0182E03A
:100B3000C80ED11CC601ACDD8F3F29F42597C41522
:100B4000D505A1F7EECFCE01A3DD682FC201A8DD48
:100B50004E018FEF881A980AC4019ADD682FC201EE
:100B600001969EDDC60194DD682FC201029698DDD4
:100B70003E0183E0680E711CC3018ADD682FC2014B
:100B800003968EDD5E0184E0A80EB11CC50180DDF8
:100B9000682FC70185DD6FEFCE0182DD6FEFC401E5
:100BA0007FDD6FEFC6017CDD6FEFC30179DD6FEF95
:100BB000C50176DDD093DB00C093DA00A12CB12C07
:100BC000C501039665DD182F8F3F09F17501670197
:100BD00082E0C80ED11CC6015BDD812E912C982CC1
:100BE0008824882A8114910491F08C169D0641F482
:100BF000642DC60155DD612FC701039651DD0EC07E
:100C0000C401039645DD182F74018F3F01F784E07E
:100C1000A80EB11C80E4A816B10491F685E0480E38
:100C2000511C8091DA009091DB004816590608F4B7
:100C300068CFDF91CF911F91FF90EF90DF90CF9021
:100C4000BF90AF909F908F907F906F905F904F90EC
:100C5000089580E18093010181E008951F93CF936F
:100C6000DF931092D50060E070E0E091D50081E064
:100C70008E0F8093D500CB01880F991FEC01C60F12
:100C8000D71FCC0FDD1FC85CDE4F28811881EC0117
:100C9000C60FD71FCC0FDD1FCB5CDE4F58813881CC
:100CA000432F4170F0E0EF5FFE4F220F220F220F23
:100CB00015FBAA27A0F9B0E0ED01CC0FDD1FCC0F8A
:100CC000DD1F2C2B322F342B252F2270232B20833A
:100CD0002091D50031E0320F3093D500FC01E60FB2
:100CE000F71FEE0FFF1FEB5CFE4F81819281E22F19
:100CF000F0E0EF5FFE4F80836F5F7F4F60317105E3
:100D000009F0B3CF8091D500DF91CF911F91089565
:100D100010922A01A3DF08950F931F93CF93DF93BF
:100D2000403108F03CC150E0FA01EE0FFF1FE40F24
:100D3000F51FEE0FFF1FEB5CFE4F7081982F917037
:100D4000272F217030E0E92FF0E02E173F0709F43C
:100D500076C0992349F1EA01C05ADF4F7881DA0160
:100D6000AA0FBB1FFD01E057FF4F00811181F80161
:100D7000908121E030E0F90102C0EE0FFF1F7A956B
:100D8000E2F7E095F0959E23F80190837881A055D5
:100D9000BF4FED91FC91908102C0220F331F7A95D5
:100DA000E2F7292B20833EC0DA01AA0FBB1FFD0109
:100DB000E40FF51FEE0FFF1FEB5CFE4F1282118256
:100DC000FD01E40FF51FEE0FFF1FE85CFE4F908161
:100DD000907E908390819F7D9083EA01C05ADF4F7F
:100DE0007881FD01E055FF4F00811181F80190816C
:100DF00021E030E0F90102C0EE0FFF1F7A95E2F723
:100E0000E095F0959E23F80190837881A057BF4F1D
:100E1000ED91FC91908102C0220F331F7A95E2F789
:100E2000292B2083FA01EE0FFF1FE40FF51FEE0FB1
:100E3000FF1FEB5CFE4F908180FB90F9908370E088
:100E4000FA01EE0FFF1FDF01A40FB51FAA0FBB1F92
:100E5000AB5CBE4F12967C936E931197E40FF51F17
:100E6000EE0FFF1FE85CFE4F9081907E282F2695A5
:100E700026952695922B908315961C921E92149778
:100E80009C9190FF4DC082FB882780F9FA01EE0FFC
:100E9000FF1FDF01A40FB51FAA0FBB1FA85CBE4F29
:100EA0009C9180FB95F99C93E40FF51FEE0FFF1FBB
:100EB000EB5CFE4F80818D7F80838C9185FF6FC0BE
:100EC000FA01EE0FFF1FE40FF51FEE0FFF1FEB5CA3
:100ED000FE4F81819281892B09F461C0FA01EE0FE6
:100EE000FF1FDF01A40FB51FAA0FBB1FAB5CBE4FD6
:100EF00011968D919C91129715969C938E931497B1
:100F000081E090E012969C938E931197E40FF51F69
:100F1000EE0FFF1FE85CFE4F80818F7D80833FC016
:100F2000869580FF17C0FA01E05AFF4F6081FA01F1
:100F3000EE0FFF1FE057FF4F0190F081E02D9081F1
:100F400021E030E002C0220F331F6A95E2F7292B1F
:100F5000208318C0FA01E05AFF4F6081FA01EE0FBA
:100F6000FF1FE055FF4F0190F081E02D908121E0BF
:100F700030E002C0220F331F6A95E2F720953095CA
:100F800029232083FA01EE0FFF1FE40FF51FEE0F58
:100F9000FF1FEB5CFE4F908180FB91F99083DF9106
:100FA000CF911F910F910895CF92DF92EF92FF9210
:100FB0000F931F93CF93DF931F92CDB7DEB71982A4
:100FC00000E010E0C80164DBE82EC801019660DB98
:100FD000C82EC80102965CDBD82EC80103960C5FB0
:100FE0001F4F56DBF82E8FEFF81202C080E01FC0B3
:100FF00049816C2D8E2D90DE298130E0F901EE0FB4
:10100000FF1FE20FF31FEE0FFF1FEB5CFE4F80810F
:1010100080FD07C08D2D90E0BE016F5F7F4F9F293F
:101020008EDB89818F5F8983803160F28FEF0F9033
:10103000DF91CF911F910F91FF90EF90DF90CF90B4
:101040000895AF92BF92CF92DF92EF92FF920F93EB
:101050001F93CF93DF9360E970E0C0EBD0E0A0E78F
:10106000B0E020E030E041E050E0C901880F991F76
:10107000FC01E20FF31FEE0FFF1FEB5CFE4F108130
:101080001E7F108310811260108312821182FC0176
:10109000E20FF31FEE0FFF1FE85CFE4F1081107E82
:1010A0001083F901E05AFF4F7F01C080FB010191DD
:1010B0001191BF01F801D080FA0102C0EE0FFF1FAD
:1010C000CA94E2F7DE2AF801D082F701C0800991C4
:1010D0001991F801D080FA0102C0EE0FFF1FCA94E7
:1010E000E2F7E095F095DE22F801D082ED91FD91D6
:1010F0000081F701F08010E002C015950795FA9481
:10110000E2F7FC01E20FF31FEE0FFF1FE85CFE4F5A
:10111000808100FB85F980832F5F3F4F20313105AF
:1011200009F0A3CF80E490E09093DB008093DA0095
:10113000C6EFD1E0CE01ACDA8F3F31F02296D093EA
:10114000DB00C093DA0008C025978091DA00909107
:10115000DB00C817D90770F727DF80E280932A01E8
:10116000DF91CF911F910F91FF90EF90DF90CF9083
:10117000BF90AF9008950F931F93CF93DF9380910B
:10118000E000873809F463C0883809F465C0853801
:1011900009F068C08091D0008F3F29F48FE78093D9
:1011A000030183E09CC0C091D000D0E0CC0FDD1FD4
:1011B000CC0FDD1F8FEF8093D0008091D40010E022
:1011C000CE01019665DA082FCE01029661DA8F3FD3
:1011D00031F41092D4008093030183E080C0C02FCB
:1011E000D0E0D82B209739F41092D4008FEF809361
:1011F000030183E074C01F5F8091D400811700F762
:101200001092D400CE0144DA01E011E0F8018083AD
:10121000CE0101963DDAF8018183CE01029638DADB
:10122000F80182831382CE01049632DA182FCE01A0
:1012300003962EDA212F30E0322F2227282B232B62
:1012400009F44AC08FEF8093040184E048C0ACDE0B
:101250008093010181E043C08091D100809301011E
:1012600081E03DC08031D0F590E0FC01EE0FFF1F22
:10127000DF01A80FB91FAA0FBB1FA85CBE4F5C916E
:10128000CC91DF01A80FB91FAA0FBB1FAB5CBE4FEB
:101290002C913C91432F4170A1E0B1E0352F330FE9
:1012A000330F330FC5FB662760F970E0660F771FB9
:1012B000660F771F632B362F342B2270232B2C9332
:1012C000E80FF91FEE0FFF1FEB5CFE4F818192814B
:1012D00011968C9382E003C084E001C080E0DF912E
:1012E000CF911F910F910895AF92BF92CF92DF924D
:1012F000EF92FF920F931F93CF93DF934091E00003
:10130000842F90E0FC01E158F109E830F10508F084
:10131000E7C1E35AFF4F09949AD8882309F4E5C13D
:10132000C091E400D0E0CC0FDD1FCC0FDD1F7E01AB
:1013300021E0E21AF108CE010396AAD9182FCE01B6
:101340000296A6D91F3FA9F0C82FD0E0D12B209735
:1013500031F411C090E0912B009771F0EC01CE01B7
:10136000049696D9182FCE01039692D91F3F91F774
:1013700003C0E70101C0E7016091DA007091DB0072
:101380006115710549F480E490E09093DB0080934F
:10139000DA0060E470E006C0CB010596893F914019
:1013A00008F0A3C1CE0103967BD96091DB00CE018A
:1013B000049676D9C0EED0E06D818091DA009091EC
:1013C000DB009C012F5F3F4F3093DB002093DA005E
:1013D00063D96E818091DA009091DB009C012F5FD0
:1013E0003F4F3093DB002093DA0056D96F81809114
:1013F000DA009091DB009C012F5F3F4F3093DB00C0
:101400002093DA0049D98091DA009091DB009C01A9
:101410002F5F3F4F3093DB002093DA0060E03CD930
:101420008091DA009091DB009C012F5F3F4F309359
:10143000DB002093DA0060E02FD957C108D8882359
:1014400009F453C1C091E400D0E0CC0FDD1FCC0FF4
:10145000DD1F219700E00F2EF0EEEF2EF0E0FF2EC3
:10146000F02DCE01049614D9182F8F3F09F43DC1F9
:10147000CE0103960DD9C12FD0E0DC2FCC27C82B8D
:10148000CE010197883F914008F02FC10F5FF7010F
:101490008581801730F700EE10E0F8016681CE01FB
:1014A000FFD8F8016781CE010196FAD8F80160856E
:1014B000CE010296F5D819C1CAD7882309F415C1FF
:1014C0002091E40030E0220F331F220F331F590117
:1014D000F1E0AF1AB108D0E00F2EF0EECF2EF0E021
:1014E000DF2EF02D85010C5F1F4FC801D1D8C82F0A
:1014F0008F3F09F4FAC0750123E0E20EF11CC70129
:10150000C7D82C2F30E0322F22275901A82AC50135
:101510000197883F914008F0E8C0DF5FF6018581C0
:101520008D1700F76501F3E0CF0ED11CC601B0D8CE
:10153000682FC701B5D8E5012496CE01A9D8682F38
:10154000C801AED86FEFC501ABD86FEFC5010196EA
:10155000A7D86FEFC5010296A3D86FEFC601A0D838
:101560006FEFCE019DD8C1C072D7882309F4BDC0EA
:101570000091E40010E0000F111F000F111F78010F
:1015800023E0E20EF11CC70183D8D82E0E5F1F4F57
:10159000C8017ED8C82F60E0C80182D860E0C701CA
:1015A0007FD88FEFD81609F4A0C0D0E0DD29CE0196
:1015B0000197883F914050F098C0C12FD0E0D02BC8
:1015C000CE010197883F914008F08FC07E0124E052
:1015D000E20EF11CC7015CD8082F6E0183E0C80E33
:1015E000D11CC60155D8182F6FEFCE0159D86FEF17
:1015F000CE01019655D86FEFCE01029651D86FEF0C
:10160000C6014ED86FEFC7014BD80F3FB1F66DC082
:10161000E0EEF0E082818093D00083818093D4005B
:1016200064C015D7882309F460C050DA5EC00FD7B4
:10163000882309F45AC0C12CD12C00E010E0E60147
:10164000CC0FDD1FFE01EC0DFD1DEE0FFF1FE85C52
:10165000FE4F60813081FE01EC0DFD1DEE0FFF1F7E
:10166000EB5CFE4F20818081982F9170660F660F92
:10167000660F35FBEE24E0F8F12CA701440F551F4F
:10168000440F551F642B862F892B622F6270682BA5
:10169000C80106D8CC0DDD1DCC0FDD1FCB5CDE4FA5
:1016A00069817A81C8010196FBD7E8012496CE01B1
:1016B000EFD78F3F41F460E0C8010296F1D760E0B8
:1016C000C8010396EDD7EFEFCE1ADE0A8E01C034C3
:1016D000D10509F0B4CF09C08091E2008093D10018
:1016E000E0EEF0E06381828117DBDF91CF911F9103
:1016F0000F91FF90EF90DF90CF90BF90AF90089543
:10170000662349F1282F30E0F901E653FE4F94910A
:101710006917F0F0FA017081F901EE0FFF1FE295F1
:10172000F295F07FFE27E07FFE27272F269526954E
:101730002695E20FF11DE653FF4F249130E07770BC
:1017400002C0359527957A95E2F720FD06C0691B02
:101750008F5FD6DF089580E0089581E00895AF920D
:10176000BF92CF92DF92EF92FF920F931F93CF938E
:10177000DF931F92CDB7DEB72091D9008091D200C0
:101780009091D300820F911D9093D3008093D2004B
:1017900089830F2EF0E9CF2EF0E0DF2EF02D00E050
:1017A00010E0AA24A394B12C7801F801EE0FFF1FDA
:1017B000E00FF11FEE0FFF1FEB5CFE4F808180FFFB
:1017C000E9C0F801EE0FFF1FE00FF11FEE0FFF1F42
:1017D000EB5CFE4F84819581892B09F44AC0F801A6
:1017E000EE0FFF1FE00FF11FEE0FFF1FEB5CFE4F30
:1017F000248135818091D2009091D30002C0880F5E
:10180000991F2A95E2F78115904899F5F801EE0F96
:10181000FF1FE00FF11FEE0FFF1FEB5CFE4F8181FA
:101820009281892B79F0F801EE0FFF1FE00FF11F75
:10183000EE0FFF1FEB5CFE4F818192810196928338
:10184000818317C0F801EE0FFF1FDF01A00FB11F4A
:10185000AA0FBB1FAB5CBE4F15961C921E9214972D
:10186000E00FF11FEE0FFF1FE85CFE4F80818062EA
:101870008083F701EE0FFF1FEE0DFF1DEE0FFF1F20
:10188000E85CFE4F808185FD13C0F701EE0FFF1F5E
:10189000EE0DFF1DEE0FFF1FEB5CFE4F61817281AD
:1018A000AE014F5F5F4F80E02BDF882309F45FC0FC
:1018B000F701EE0FFF1FEE0DFF1DEE0FFF1FE85C9F
:1018C000FE4F80818F7109F440C0F701EE0FFF1FBA
:1018D000EE0DFF1DEE0FFF1FE85CFE4F80818F7144
:1018E000885F950102C0220F331F8A95E2F780912D
:1018F000D2009091D30082239323892B91F0F7019A
:10190000E05AFF4F8081D601ED91FC912081A50125
:1019100002C0440F551F8A95E2F7CA01822B8083CB
:1019200039C0F701E05AFF4F8081D601ED91FC915B
:101930002081A50102C0440F551F8A95E2F7CA0114
:10194000809590958223808325C0F701E05AFF4F50
:101950008081D601ED91FC912081A50102C0440F48
:10196000551F8A95E2F7CA01822B808313C0F701C5
:10197000E05AFF4F8081D601ED91FC912081A501B5
:1019800002C0440F551F8A95E2F7CA0180959095D1
:10199000822380830F5F1F4F52E0C50ED11C0031A0
:1019A000110509F001CF0F90DF91CF911F910F9199
:1019B000FF90EF90DF90CF90BF90AF90089525D427
:1019C00040DBC0EED0E089E0888381E08A838CDC54
:1019D00087E888831FEF1A831B8386DC81E888836E
:1019E0001A831B8383E08C8389E88D8387E08E8351
:1019F0001F827ADC8091D9008F5F8093D900D4D781
:101A000053D6F8CF26D9089529D90895B4DB08957F
:101A10006BDC08957DD90895A2DE0895A1E21A2E07
:101A2000AA1BBB1BFD010DC0AA1FBB1FEE1FFF1F82
:101A3000A217B307E407F50720F0A21BB30BE40BD2
:101A4000F50B661F771F881F991F1A9469F7609519
:101A50007095809590959B01AC01BD01CF010895D3
:101A6000E199FECF9FBB8EBBE09A99278DB3089575
:101A7000262FE199FECF9FBB8EBBE09A01970DB256
:101A8000021631F02DBB0FB6F894E29AE19A0FBE20
:101A90000895262FE199FECF9FBB8EBB2DBB0FB6BD
:101AA000F894E29AE19A0FBE01960895F894FFCF58
:101AB00000010203030201000405060704030201FA
:101AC000300030003000300033003300330033008A
:101AD000300030003000300036003600360036006E
:101AE000320032003200320035003500350035005A
:101AF000320032003200320038003800380038003E
:101B00003100310031003100340034003400340041
:101B10003100310031003100370037003700370025
:021B2000FF01C3
:00000001FF
