S00A0000494F2E7372656382
S113000065C07FC07EC07DC07CC07BC0D2C279C0C9
S113001078C077C076C075C074C073C072C071C038
S113002070C01FC26EC0E4C0EFC061C160C15FC1D7
S11300305EC15DC15CC15BC15AC1EDC0EEC0F7C019
S1130040FEC00DC154C115C11BC151C150C122C153
S113005025C128C12BC12EC131C134C137C147C10B
S113006039C145C144C143C142C141C140C13FC17D
S11300703EC13DC13CC132C13AC139C138C137C1A9
S113008036C135C134C133C132C1B0C0A7C02FC1DC
S11300902EC12DC1A9C066C174C179C1DDC1DCC145
S11300A0DBC1DAC1D9C1D8C17FC1D6C1D5C1D4C1E0
S11300B0D3C18FC19BC1D0C1ADC1D9CAEDC87EC95E
S11300C0BBC912CA64CA6CCA71CACDCA11241FBE84
S11300D0CFE5D4E0DEBFCDBF10E0A0E6B0E0E8E5B8
S11300E0FBE102C005900D92A23DB107D9F721E0D2
S11300F0A2EDB0E001C01D92AA3FB207E1F7D2DC45
S113010029CD7ECFCF93DF9316B880E090E0FCDC5E
S1130110C82FD0E0DC2FCC27D093DD00C093DC00C7
S113012081E090E0F1DCC82BCE0101978E3F9F4F18
S113013028F4D093DD00C093DC000FC080E090E48D
S11301409093DD008093DC0060E480E090E0F5DCD7
S11301506091DC0081E090E0F0DC2091DC003091E3
S1130160DD0040E050E060E07BE187EB90E0AADC5A
S11301703093D6002093D50081E08EBD89B780618D
S113018089BF82E090E0C0DC9DEF980F953708F0BE
S113019081E6880F82B986B78F7D86BF86B785646E
S11301A086BF789410921F011092D9001092D80043
S11301B0DF91CF910895CF93DF93E091DE00E83C87
S11301C008F493C08E2F90E0FC01E85CF109E83359
S11301D0F10508F08CC0ED5EFF4F099480911F017A
S11301E08093FF0081E084C069DC82C061DC80C050
S11301F084E090E089DCCFEFD0E0888385E090E074
S113020083DC898382E074C083E090E07DDC8093AA
S1130210FF0081E06DC04ADC6BC0EFEFF0E01082BC
S113022087EB81838BE18283138284E061C0EFEFEB
S1130230F0E081E080838AEF818382E059C02091DD
S1130240D8003091D900EFEFF0E08AEF91E0821B03
S1130250930B90838AEF821B818382E049C0809153
S1130260D8009091D900EFEFF0E09083818382E091
S11302703FC0EFEFF0E0108280E2818382E038C07B
S11302808091DC009091DD00EFEFF0E090838183BA
S113029082E02EC01092FF0081E02AC01092FF007D
S11302A081E026C01092FF0081E022C01092FF007E
S11302B081E01EC01092FF0081E01AC01092FF007E
S11302C081E016C01092FF0081E012C01092FF007E
S11302D081E00EC01092FF0081E00AC0EFEFF0E071
S11302E081E08083818380E003C0E4DB01C080E09F
S11302F0DF91CF910895CF93C091E00084E090E026
S113030003DCC8130AC0C091E10085E090E0FCDB87
S113031091E0C81390E0892F01C080E0CF91089547
S11303200F931F93CF93DF938091DA00882309F40E
S113033093C02091DF0030E090E00297281739073E
S113034009F08AC08091DE00883C08F484C090E003
S1130350FC01E85CF109E231F10508F07DC0E55BE0
S1130360FF4F0994C8DF882309F476C0CEEDD0E0AE
S11303706C8184E090E0E1DB6D8185E090E0DDDB81
S11303806BC06091E00083E090E0D7DB65C0B3DF31
S1130390882309F461C06091E200862F880F82B936
S11303A082E090E0CADB58C0A6DF882309F454C079
S11303B00FB6F894A89581B5886181BD11BC0FBEB4
S11303C098E088E10FB6F894A89581BD0FBE91BD61
S11303D0FFCFEEEDF0E0828190E0982F8827238113
S11303E0822B9093D9008093D80036C084DF882371
S11303F099F1C6E0D0E000E012E06FEFCE018CDBB3
S1130400A89521960C171D07C1F71092D9001092D8
S1130410D80022C0CEEDD0E01A81212F30E0322F57
S113042022278B81282B3093DD002093DC0040E0D1
S113043050E060E07BE187EB90E044DB3093D60052
S11304402093D500612F80E090E077DB6B8181E021
S113045090E073DB01C030DBDF91CF911F910F91EE
S113046008951F920F920FB60F9211242F933F936A
S11304704F935F936F937F938F939F93AF93BF93A8
S1130480EF93FF9381B1887F803A09F447C028F441
S1130490803641F0803859F045C0883AD9F0883B1D
S11304A0F1F040C085EC86BF1092DA003DC0E091C7
S11304B0DA0081E08E0F8093DA0093B1F0E0E2522B
S11304C0FF4F9083803218F485EC86BF2DC085E8F9
S11304D086BF2AC01092FE006EDE8093D400809105
S11304E0D400811104C013B885E886BF1DC0E09113
S11304F0FE0081E08E0F8093FE00F0E0E150FF4F9C
S1130500808183B99091FE008091D400981718F4EB
S113051085EC86BF09C085E886BF06C085EC86BF2A
S1130520FFDE02C085EC86BFFF91EF91BF91AF91D2
S11305309F918F917F916F915F914F913F912F91F7
S11305400F900FBE0F901F9018958A5F9F4FDCDAB3
S113055008958A5F9F4FF1DA08958A5F9F4FDCDA2E
S11305600895CF93C091D700CC2309F1A9DAE6E22C
S1130570F1E0828193818C0F911D9383828380911A
S1130580D7008C1B8093D700808191812091DC005F
S11305903091DD002817390730F001969093270138
S11305A08093260104C01092270110922601CF9156
S11305B008951F920F920FB60F9211242F933F9319
S11305C08F939F93F8942AB53BB58091D500909171
S11305D0D600820F931F9BBD8ABD8091D7008F5F89
S11305E08093D70078949F918F913F912F910F9092
S11305F00FBE0F901F901895DF92EF92FF920F930A
S11306001F93CF93DF93009709F425C12091D10064
S1130610222309F420C18B01EC01A3DFCE0195DF75
S1130620F801208130E0F901EE0FFF1FE20FF31F04
S1130630EE0FFF1FEE0FFF1FE35DFE4F908195FB52
S1130640992790F9282F221F2227221F2913F1C04E
S11306508F77E82EF12CF701EE0FFF1FEE0DFF1D33
S1130660EE0FFF1FEE0FFF1FE65DFE4F808180FF40
S1130670E0C0CE01019669DFD82ECE01029665DF77
S1130680D2FA442740F99701220F331FF901EE0DE6
S1130690FF1DEE0FFF1FEE0FFF1FE35DFE4F908166
S11306A040FB95F99083F901EE0DFF1DEE0FFF1F3E
S11306B0EE0FFF1FE65DFE4F158214829D2D969569
S11306C09D2590FD54C0282F30E0C701880F991F45
S11306D0FC01EE0DFF1DEE0FFF1FEE0FFF1FE65D89
S11306E0FE4F32832183FC01EE0DFF1DEE0FFF1F31
S11306F0EE0FFF1FE35DFE4FD694D694D69480810F
S1130700807ED82AD082808185FF90C0F701EE0FC9
S1130710FF1FEE0DFF1DEE0FFF1FEE0FFF1FE65D27
S1130720FE4F81819281892B09F480C0C701880F13
S1130730991FFC01EE0DFF1DEE0FFF1FEE0FFF1FB3
S1130740E65DFE4F21813281358324832FEF30E033
S113075032832183FC01EE0DFF1DEE0FFF1FEE0F10
S1130760FF1FE35DFE4F80818F7D80835FC0D0FEDD
S113077031C09701220F331FF901EE0DFF1DEE0F5B
S1130780FF1FEE0FFF1FE65DFE4F41815281BA014C
S1130790681B710972836183F901EE0DFF1DEE0F71
S11307A0FF1FEE0FFF1FE35DFE4F8081D694D694AA
S11307B0D6948D19F901EE0DFF1DEE0FFF1FEE0FFC
S11307C0FF1FE35DFE4F982F9F718081807E892BF0
S11307D080832CC0F701EE0FFF1FDF01AE0DBF1D9C
S11307E0AA0FBB1FAA0FBB1FA65DBE4F11962D916A
S11307F03C911297A901480F511D12965C934E9398
S11308001197DF01AE0DBF1DAA0FBB1FAA0FBB1F9F
S1130810A35DBE4F8C91D694D694D6948D0DFD01D4
S1130820982F9F718081807E892B808380E28093C2
S11308301F01CE01039689DEF82ECE01049685DED3
S11308402F2D30E0B901782BCB01883F71E0970759
S113085010F4B801D1DEDF91CF911F910F91FF9079
S1130860EF90DF9008950F931F93CF93DF938C0144
S1130870FC01C081CC0FCC0F82E08C0F90E065DED0
S1130880D82F83E08C0F90E060DE8F3F21F0B80119
S11308908D2F90E0B1DEDF91CF911F910F910895DC
S11308A0EF92FF920F931F93CF93DF931F92CDB7D5
S11308B0DEB71982EE24E3946894FF24F5F851DE40
S11308C0898190E0FC01EE0FFF1FE80FF91FEE0F86
S11308D0FF1FEE0FFF1FE65DFE4F208120FD79C054
S11308E09C01220F331FF901E80FF91FEE0FFF1FC0
S11308F0EE0FFF1FE35DFE4F5081F901E059FF4FFA
S11309000190F081E02D2081FC01E05AFF4F4081ED
S113091055FB002700F910E030E002C0359527951B
S11309204A95E2F72170332702171307D1F0FC012F
S1130930EE0FFF1FE80FF91FEE0FFF1FEE0FFF1F53
S1130940E35DFE4F208125FB222720F9209530818D
S113095020FB35F93083FC01E651FE4FE082F09232
S11309601F01FC01E651FE4F2081222391F1FC017D
S1130970E651FE4F60819C01220F331FF901E80FFD
S1130980F91FEE0FFF1FEE0FFF1FE65DFE4F4181C3
S11309905281F901E80FF91FEE0FFF1FEE0FFF1F41
S11309A0E35DFE4FE081EF7170E09A01220F331F87
S11309B022953295307F3227207F32272E2B6217E3
S11309C0730738F0FC01E651FE4F1082CE01019608
S11309D04ADF89818F5F8983803108F470CF0F905B
S11309E0DF91CF911F910F91FF90EF9008954F9257
S11309F05F926F927F928F929F92AF92BF92CF92AB
S1130A00DF92EF92FF921F93CF93DF938091D800F0
S1130A109091D9008134910508F49CC068944424D1
S1130A2046F8512C720184E0E80EF11CC7018DDDFB
S1130A308F3F09F084C0C091D800D091D900C4156B
S1130A40D50529F44090D8005090D90078C06E01A3
S1130A5082E0C80ED11CC60178DD8F3F29F42597AA
S1130A60C415D505A1F7EECFCE016FDD682FC20105
S1130A7074DD4E018FEF881A980AC40166DD682F71
S1130A80C20101966ADDC60160DD682FC2010296CB
S1130A9064DD3E0183E0680E711CC30156DD682FDE
S1130AA0C20103965ADD5E0184E0A80EB11CC501A3
S1130AB04CDD682FC70151DD6FEFCE014EDD6FEFC6
S1130AC0C4014BDD6FEFC60148DD6FEFC30145DDA7
S1130AD06FEFC50142DDD093D900C093D800A12C9B
S1130AE0B12CC501039631DD182F8F3F09F1750133
S1130AF0670182E0C80ED11CC60127DD812E912C2E
S1130B00982C8824882A8114910491F08C169D06CF
S1130B1041F4642DC60121DD612FC70103961DDD5B
S1130B200EC0C401039611DD182F74018F3F01F725
S1130B3084E0A80EB11C80E4A816B10491F685E007
S1130B40480E511C8091D8009091D900481659063E
S1130B5008F468CFDF91CF911F91FF90EF90DF9061
S1130B60CF90BF90AF909F908F907F906F905F9049
S1130B704F90089580E18093FF0081E008951F93D2
S1130B80CF93DF931092D30060E070E0E091D30044
S1130B9081E08E0F8093D300CB01880F991FEC0165
S1130BA0C60FD71FCC0FDD1FCC0FDD1FC35DDE4F7B
S1130BB028811881EC01C60FD71FCC0FDD1FCC0F85
S1130BC0DD1FC65DDE4F58813881432F4170F0E050
S1130BD0E150FF4F220F220F220F15FBAA27A0F985
S1130BE0B0E0ED01CC0FDD1FCC0FDD1F2C2B322F1D
S1130BF0342B252F2270232B20832091D30031E026
S1130C00320F3093D300FC01E60FF71FEE0FFF1FE6
S1130C10EE0FFF1FE65DFE4F81819281E22FF0E02F
S1130C20E150FF4F80836F5F7F4F6031710509F0A2
S1130C30ADCF8091D300DF91CF911F910895109291
S1130C401F019DDF08950F931F93CF93DF934031CE
S1130C5008F054C150E0FA01EE0FFF1FE40FF51F36
S1130C60EE0FFF1FEE0FFF1FE65DFE4F7081982F02
S1130C709170272F217030E0E92FF0E02E173F0705
S1130C8009F47CC0992349F1EA01C05ADF4F788105
S1130C90DA01AA0FBB1FFD01E057FF4F008111814C
S1130CA0F801908121E030E0F90102C0EE0FFF1F4E
S1130CB07A95E2F7E095F0959E23F8019083788188
S1130CC0A055BF4FED91FC91908102C0220F331FBC
S1130CD07A95E2F7292B208342C0DA01AA0FBB1FC1
S1130CE0FD01E40FF51FEE0FFF1FEE0FFF1FE65D82
S1130CF0FE4F12821182FD01E40FF51FEE0FFF1F5C
S1130D00EE0FFF1FE35DFE4F9081907E90839081F4
S1130D109F7D9083EA01C05ADF4F7881FD01E05541
S1130D20FF4F00811181F801908121E030E0F90149
S1130D3002C0EE0FFF1F7A95E2F7E095F0959E232F
S1130D40F80190837881A057BF4FED91FC91908179
S1130D5002C0220F331F7A95E2F7292B2083FA0170
S1130D60EE0FFF1FE40FF51FEE0FFF1FEE0FFF1F27
S1130D70E65DFE4F908180FB90F9908370E0FA016C
S1130D80EE0FFF1FDF01A40FB51FAA0FBB1FAA0F91
S1130D90BB1FA65DBE4F12967C936E931197E40F12
S1130DA0F51FEE0FFF1FEE0FFF1FE35DFE4F908157
S1130DB0907E282F269526952695922B908315961E
S1130DC01C921E9214979C9190FF57C082FB882717
S1130DD080F9FA01EE0FFF1FDF01A40FB51FAA0F60
S1130DE0BB1FAA0FBB1FA35DBE4F9C9180FB95F94F
S1130DF09C93E40FF51FEE0FFF1FEE0FFF1FE65D40
S1130E00FE4F80818D7F80838C9185FF77C0FA01AE
S1130E10EE0FFF1FE40FF51FEE0FFF1FEE0FFF1F76
S1130E20E65DFE4F81819281892B09F467C0FA0146
S1130E30EE0FFF1FDF01A40FB51FAA0FBB1FAA0FE0
S1130E40BB1FA65DBE4F11968D919C91129715966E
S1130E509C938E9314978FEF90E012969C938E93AD
S1130E601197E40FF51FEE0FFF1FEE0FFF1FE35D59
S1130E70FE4F80818F7D808341C0869580FF17C09F
S1130E80FA01E05AFF4F6081FA01EE0FFF1FE057AD
S1130E90FF4F0190F081E02D908121E030E002C00D
S1130EA0220F331F6A95E2F7292B208318C0FA0119
S1130EB0E05AFF4F6081FA01EE0FFF1FE055FF4F2C
S1130EC00190F081E02D908121E030E002C0220FFA
S1130ED0331F6A95E2F72095309529232083FA0180
S1130EE0EE0FFF1FE40FF51FEE0FFF1FEE0FFF1FA6
S1130EF0E65DFE4F908180FB91F99083DF91CF9165
S1130F001F910F910895CF92DF92EF92FF920F936A
S1130F101F93CF93DF931F92CDB7DEB7198200E002
S1130F2010E0C80112DBE82EC80101960EDBC82EC2
S1130F30C80102960ADBD82EC80103960C5F1F4F26
S1130F4004DBF82E8FEFF81202C080E021C0498143
S1130F506C2D8E2D78DE298130E0F901EE0FFF1F14
S1130F60E20FF31FEE0FFF1FEE0FFF1FE65DFE4FB4
S1130F70808180FD07C08D2D90E0BE016F5F7F4FA3
S1130F809F293ADB89818F5F8983803150F28FEF0B
S1130F900F90DF91CF911F910F91FF90EF90DF9011
S1130FA0CF900895AF92BF92CF92DF92EF92FF92CB
S1130FB00F931F93CF93DF9360E970E0C0EBD0E011
S1130FC0A0E7B0E020E030E041E050E0C901880F44
S1130FD0991FFC01E20FF31FEE0FFF1FEE0FFF1F1F
S1130FE0E65DFE4F10811E7F108310811260108316
S1130FF012821182FC01E20FF31FEE0FFF1FEE0FAE
S1131000FF1FE35DFE4F1081107E1083F901E05A4B
S1131010FF4F7F01C080FB0101911191BF01F801D5
S1131020D080FA0102C0EE0FFF1FCA94E2F7DE2A55
S1131030F801D082F701C08009911991F801D0809C
S1131040FA0102C0EE0FFF1FCA94E2F7E095F09593
S1131050DE22F801D082ED91FD910081F701F0804C
S113106010E002C015950795FA94E2F7FC01E20F2F
S1131070F31FEE0FFF1FEE0FFF1FE35DFE4F808196
S113108000FB85F980832F5F3F4F2031310509F044
S11310909DCF80E490E09093D9008093D800C6EF70
S11310A0D1E0CE0152DA8F3F31F02296D093D900AD
S11310B0C093D80008C025978091D8009091D9009A
S11310C0C817D90770F71FDF80E280931F01DF91F3
S11310D0CF911F910F91FF90EF90DF90CF90BF9031
S11310E0AF9008950F931F93CF93DF938091DE0009
S11310F0873809F465C0883809F467C0853809F071
S11311006AC08091D0008F3F29F481E0809302016E
S113111084E0A5C0C091D000D0E0CC0FDD1FCC0F7F
S1131120DD1F21978FEF8093D0008091D20010E0D3
S1131130CE0103960ADA082FCE01049606DA8F3F11
S113114039F41092D20082E08093020184E087C0D7
S1131150C02FD0E0D82B209739F41092D20082E02F
S11311608093020184E07BC01F5F8091D2008117CD
S1131170F8F61092D200CE01E8D90FEF10E0F80192
S11311808083CE010196E1D9F8018183CE010296D4
S1131190DCD9F80182831382CE010496D6D9182FA4
S11311A0CE010396D2D9212F30E0322F2227282BCB
S11311B0232B09F451C08FEF8093020184E04FC0C8
S11311C0A2DE8093FF0081E04AC08091D100809329
S11311D0FF0081E044C0803108F040C090E0FC0191
S11311E0EE0FFF1FDF01A80FB91FAA0FBB1FAA0F25
S11311F0BB1FA35DBE4F5C91CC91DF01A80FB91F4B
S1131200AA0FBB1FAA0FBB1FA65DBE4F2C913C911A
S1131210432F4170AFEFB0E0352F330F330F330F4F
S1131220C5FB662760F970E0660F771F660F771FAE
S1131230632B362F342B2270232B2C93E80FF91FAA
S1131240EE0FFF1FEE0FFF1FE65DFE4F81819281BF
S113125011968C9382E003C084E001C080E0DF91AA
S1131260CF911F910F910895AF92BF92CF92DF92C9
S1131270EF92FF920F931F93CF93DF934091DE0081
S1131280842F90E0FC01E058F109E930F10508F001
S1131290FCC1E35AFF4F09942ED8882309F4FAC1FC
S11312A0C091E200D0E0CC0FDD1FCC0FDD1F7E012A
S11312B021E0E21AF108CE01039647D9182FCE0196
S11312C0029643D91F3FA9F0C82FD0E0D12B209715
S11312D031F411C090E0912B009771F0EC01CE0134
S11312E0049633D9182FCE0103962FD91F3F91F7B7
S11312F003C0E70101C0E7016091D8007091D900F3
S11313006115710549F480E490E09093D9008093CD
S1131310D80060E470E006C0CB010596893F914097
S113132008F0B8C1CE01039618D96091D900CE0156
S1131330049613D9CEEDD0E06D818091D8009091C0
S1131340D9009C012F5F3F4F3093D9002093D800E0
S113135000D96E818091D8009091D9009C012F5FB3
S11313603F4F3093D9002093D800F3D86F818091F8
S1131370D8009091D9009C012F5F3F4F3093D90042
S11313802093D800E6D88091D8009091D9009C0190
S11313902F5F3F4F3093D9002093D80060E0D9D815
S11313A08091D8009091D9009C012F5F3F4F3093DA
S11313B0D9002093D80060E0CCD86CC19CD7882396
S11313C009F468C1C091E200D0E0CC0FDD1FCC0F5E
S11313D0DD1F219700E00F2EFEEDEF2EF0E0FF2E33
S11313E0F02DCE010496B1D8182F8F3F09F452C1C5
S11313F0CE010396AAD8C12FD0E0DC2FCC27C82B6E
S1131400CE010197883F914008F044C10F5FF70176
S11314108581801730F70EED10E0F8016681CE016A
S11314209CD8F8016781CE01019697D8F8016085B0
S1131430CE01029692D82EC15ED7882309F42AC120
S11314402091E20030E0220F331F220F331F590195
S1131450F1E0AF1AB108D0E00F2EFEEDCF2EF0E090
S1131460DF2EF02D85010C5F1F4FC8016ED8C82FE9
S11314708F3F09F40FC1750123E0E20EF11CC7018F
S113148064D82C2F30E0322F22275901A82AC50115
S11314900197883F914008F0FDC0DF5FF601858128
S11314A08D1700F76501F3E0CF0ED11CC6014DD8AE
S11314B0682FC70152D8E5012496CE0146D8682F7B
S11314C0C8014BD86FEFC50148D86FEFC50101962D
S11314D044D86FEFC501029640D86FEFC6013DD8DE
S11314E06FEFCE013AD8D6C006D7882309F4D2C00C
S11314F0C091E200D0E0CC0FDD1FCC0FDD1F7E01D8
S113150023E0E20EF11CC70120D8082F2296CE0159
S11315101CD8182F60E0CE0120D860E0C7011DD888
S11315200F3F09F4B7C0C12FD0E0D02BCE010197F3
S1131530883F914050F0AEC0C12FD0E0D02BCE01F7
S11315400197883F914008F0A5C07E0124E0E20E97
S1131550F11CC701FAD7082F6E0183E0C80ED11C15
S1131560C601F3D7182F6FEFCE01F7D76FEFCE0177
S11315700196F3D76FEFCE010296EFD76FEFC60156
S1131580ECD76FEFC701E9D70F3FB1F683C0EEED9B
S1131590F0E082818093D00083818093D2007AC06E
S11315A0AAD6882309F476C022DA74C0A4D6882384
S11315B009F470C0C12CD12CC0E0D0E08601000F2A
S11315C0111FF801EC0DFD1DEE0FFF1FEE0FFF1FA5
S11315D0E35DFE4F60813081F801EC0DFD1DEE0FDF
S11315E0FF1FEE0FFF1FE65DFE4F20818081982FC5
S11315F09170660F660F660F35FBEE24E0F8F12C50
S1131600A701440F551F440F551F642B862F892BA8
S1131610622F6270682BCE01A0D7F801EC0DFD1D7E
S1131620EE0FFF1FEE0FFF1FE65DFE4F618172811B
S1131630CE01019692D78E010C5F1F4FC80185D74A
S11316408F3F41F460E0CE01029687D760E0CE017F
S1131650039683D7EFEFCE1ADE0AE80100341105B2
S113166009F0ACCF17C08091E0008093D10000EE68
S113167010E0C0E04C2FF80161818081E4DA0E5F54
S11316801F4FCF5FC031B1F705C0EEEDF0E06381CD
S11316908281D9DADF91CF911F910F91FF90EF9062
S11316A0DF90CF90BF90AF9008954F925F926F926A
S11316B07F928F929F92AF92BF92CF92DF92EF92DE
S11316C0FF920F931F93CF93DF936090D700662010
S11316D009F4D7C1A0E9B0E020E030E0462D50E0A5
S11316E06894772475F844244394512CC901F90172
S11316F0EE0FFF1FE20FF31FEE0FFF1FEE0FFF1F92
S1131700E65DFE4FE081E0FD0EC0F901E651FE4FBB
S1131710E081EE2309F4AEC1F901E651FE4F908158
S1131720960D9083A7C1F901EE0FFF1FE20FF31F7F
S1131730EE0FFF1FEE0FFF1FE65DFE4F0180F281EB
S1131740E02DEF2B89F0F901EE0FFF1FE20FF31FDD
S1131750EE0FFF1FEE0FFF1FE65DFE4F06811781A0
S1131760040F151F17830683FC01EE0FFF1FE80FFC
S1131770F91FEE0FFF1FEE0FFF1FE35DFE4FE08129
S1131780EF7109F473C0FC01EE0FFF1F8F01080F06
S1131790191F000F111F000F111FE801C65DDE4F56
S11317A0E884F984E40EF51EF986E886088519852F
S11317B0E80FF91FEE0FFF1FEE0FFF1FE35DFE4F53
S11317C0C081CF719C2EC081CF718C2EC081CF710E
S11317D0AC2EC081CF71BC2EC081CF71CC2EC08104
S11317E0CF71DC2EC081DC2FDF71E081CE2FCF7171
S11317F0012F1127E82DF0E0E90DF11DEA0DF11D8F
S1131800EB0DF11DEC0DF11DED0DF11DED0FF11DB5
S1131810EC0FF11D0E171F0748F1FC01EE0FFF1F1F
S11318208F01080F191F000F111F000F111FE8016E
S1131830C65DDE4F198618868F01080F191F000F29
S1131840111F000F111FE801CB5CDE4F18811295A8
S113185011701F5FE80FF91FEE0FFF1FEE0FFF1F40
S1131860EE5CFE4F038110FB04F90383FC01EE0FD1
S1131870FF1FE80FF91FEE0FFF1FEE0FFF1FE35DC1
S1131880FE4FE081E5FD25C0FC01EE0FFF1FE80FD0
S1131890F91FEE0FFF1FEE0FFF1FE65DFE4F0180E5
S11318A0F281E02DEF2B09F455C0FC01EE0FFF1F70
S11318B0E80FF91FEE0FFF1FEE0FFF1FE65DFE4F4F
S11318C0068117810180F281E02D0E171F0708F4AD
S11318D041C0FC01EE0FFF1F8F01080F191F000FFD
S11318E0111F000F111FE801C65DDE4F1F821E820B
S11318F0F801E35DFE4FE081EF7131F0F801EB5C3C
S1131900FE4FE081E4FF12C0FC01E05AFF4FE0818A
S1131910CD91DC911197F880820102C0000F111F54
S1131920EA95E2F7F801EF29E88327C0FC01E05AC1
S1131930FF4FE081CD91DC911197F880B20102C094
S1131940660F771FEA95E2F7FB01E095F095EF212A
S1131950E88313C0FC01E05AFF4FE081CD91DC9194
S11319601197F880820102C0000F111FEA95E2F777
S1131970F801E095F095EF21E883FC01EE0FFF1FDD
S1131980E80FF91FEE0FFF1FEE0FFF1FE65DFE4F7E
S11319900480F581E02DEF2B09F46CC05C01AA0CE6
S11319A0BB1C7501E80EF91EE701CC0FDD1FCC0F3F
S11319B0DD1FCC5CDE4F0881D9801D2D1F70040F04
S11319C0151F1F706701CC0CDD1CCC0CDD1CB6018F
S11319D06E5C7E4FFB010283012F0F701381107F19
S11319E0102B13830881D9811D2F1F70F701EE0F6F
S11319F0FF1FEE0FFF1FE65DFE4F0480F581E02D13
S1131A0015950795159507951595079515950795BA
S1131A100E171F0778F1EB011A826B81607F6B83CD
S1131A20F701EE0FFF1FEE0FFF1FE65DFE4F018172
S1131A3012810150110912830183178216820180D9
S1131A40F281E02DEF2BB1F48701000F111F000F7D
S1131A50111F065D1E4FE8011D821C82F701EE0F67
S1131A60FF1FEE0FFF1FE35DFE4F808180628083C6
S1131A7070921F012F5F3F4F12962031310509F0FC
S1131A8035CEDF91CF911F910F91FF90EF90DF90B2
S1131A90CF90BF90AF909F908F907F906F905F900A
S1131AA04F9008952FD37EDAFBD6FECF63D80895E6
S1131AB066D8089517DB0895D7DB0895C0D8089534
S1131AC0F4DD0895A1E21A2EAA1BBB1BFD010DC073
S1131AD0AA1FBB1FEE1FFF1FA217B307E407F507DA
S1131AE020F0A21BB30BE40BF50B661F771F881FB6
S1131AF0991F1A9469F760957095809590959B014C
S1131B00AC01BD01CF010895E199FECF9FBB8EBB0F
S1131B10E09A99278DB30895262FE199FECF9FBBB4
S1131B208EBBE09A01970DB2021631F02DBB0FB6B1
S1131B30F894E29AE19A0FBE0895262FE199FECF18
S1131B409FBB8EBB2DBB0FB6F894E29AE19A0FBEF1
S10B1B5001960895F894FFCFFB
S1131B58000102030302010004050607040302014D
S1131B6830003000300030003300330033003300DD
S1131B7830003000300030003600360036003600C1
S1131B8832003200320032003500350035003500AD
S1131B983200320032003200380038003800380091
S1131BA83100310031003100340034003400340095
S1131BB83100310031003100370037003700370079
S1051BC8FF0117
S9030000FC
