:1000000065C07FC07EC07DC07CC07BC094C279C00B
:1000100078C077C076C075C074C073C072C071C03C
:1000200070C0ECC16EC0DFC0E7C02BC12AC129C1BE
:1000300028C127C126C125C124C1E5C0E6C0F1C041
:10004000F5C001C11EC104C107C11BC11AC10EC147
:100050000DC10CC10BC10AC109C108C107C111C141
:1000600005C10FC10EC10DC10CC10BC10AC109C12F
:1000700008C107C106C1FDC004C103C102C101C15D
:1000800000C1FFC0FEC0FDC0FCC0ABC0A5C0F9C030
:10009000F8C0F7C0A4C02FC13CC144C1AAC1A9C1C6
:1000A000A8C1A7C1A6C1A5C149C1A3C1A2C1A1C17F
:1000B000A0C159C164C19DC176C141C971C701C800
:1000C00035C88EC8D2C8DAC8E7C835C911241FBEE2
:1000D000CFE5D4E0DEBFCDBF10E0A0E6B0E0E6E1C2
:1000E000F7E102C005900D92A23DB107D9F721E0DA
:1000F000A2EDB0E001C01D92AC3FB207E1F7B7DA64
:1001000008CB7ECFCF93DF9316B880E090E0DBDAA8
:10011000C82FD0E0DC2FCC27D093DD00C093DC00CB
:1001200081E090E0D0DAC82BCE0101978E3F9F4F3F
:1001300028F4D093DD00C093DC000FC080E090E491
:100140009093DD008093DC0060E480E090E0D4DAFE
:100150006091DC0081E090E0CFDA2091DC0030910A
:10016000DD0040E050E060E07BE187EB90E089DA81
:100170003093D6002093D50081E08EBD89B7806191
:1001800089BF82E090E09FDA9DEF980F953708F0E5
:1001900081E6880F82B986B78F7D86BF86B7856472
:1001A00086BF7894109221011092D9001092D80045
:1001B000DF91CF910895E091DE00E83C08F45FC044
:1001C0008E2F90E0FC01E85CF109E833F10508F0BE
:1001D00058C0ED5EFF4F09948091210110C04FDAA5
:1001E00008954ADA089584E090E06DDA8093010181
:1001F00085E090E068DA36C083E090E064DA8093CE
:10020000010181E0089537DA08951092010187EB2A
:10021000809302018BE1809303011092040184E03A
:10022000089581E0809301018AEF1CC02091D800DD
:100230003091D9008AEF91E0821B930B90930101DA
:100240008AEF821B0FC08091D8009091D90008C01E
:100250001092010180E206C08091DC009091DD00E7
:10026000909301018093020182E0089510920101B0
:10027000C8CF81E0809301018093020102C0FDD9C3
:10028000089580E00895CF93C091E00084E090E06D
:100290001ADAC8130AC0C091E10085E090E013DAD1
:1002A00091E0C81390E0892F01C080E0CF910895BC
:1002B0000F931F93CF93DF938091DA00882309F483
:1002C00098C02091DF0030E090E0029728173907AE
:1002D00009F08FC0E091DE00E83C08F485C08E2F65
:1002E00090E0FC01E85CF109E231F10508F081C021
:1002F000E55BFF4F0994C7DF882309F47AC060915A
:10030000E20084E090E0F8D96091E30085E090E0BD
:1003100004C06091E00083E090E0DF91CF911F91F5
:100320000F91EAC9B0DF882309F463C06091E2004D
:10033000862F880F82B982E090E0EFCFA4DF882378
:1003400009F457C00FB6F894A89581B5886181BDAE
:1003500011BC0FBE98E088E10FB6F894A89581BD56
:100360000FBE91BDFFCF8091E0009091E1009827F2
:10037000892798279093D9008093D8003AC083DFCB
:100380008823B9F1C6E0D0E000E012E06FEFCE01C3
:10039000A2D9A89521960C171D07C1F71092D90074
:1003A0001092D80026C02091E0003091E100322761
:1003B00023273227C091E0003093DD002093DC003A
:1003C00040E050E060E07BE187EB90E05AD9309369
:1003D000D6002093D5006C2F80E090E08DD96091FD
:1003E000E10081E090E099CFDF91CF911F910F91D3
:1003F00045C9DF91CF911F910F9108951F920F92E0
:100400000FB60F9211242F933F934F935F936F93E7
:100410007F938F939F93AF93BF93EF93FF9381B19C
:10042000887F803AE1F128F4803641F0803859F035
:100430003AC0883AB1F0883BC9F035C085EC86BF38
:100440001092DA0032C0E091DA0081E08E0F8093E2
:10045000DA0093B1F0E0E252FF4F90838032E8F48B
:1004600022C010920001A7DE8093D4008091D400B6
:10047000811102C013B811C0E091000181E08E0F1C
:1004800080930001F0E0EF5FFE4F808183B990918F
:1004900000018091D400981730F085E805C085EC04
:1004A00086BF06DF02C085EC86BFFF91EF91BF914A
:1004B000AF919F918F917F916F915F914F913F91FC
:1004C0002F910F900FBE0F901F9018958A5F9F4F2E
:1004D000FAC88A5F9F4F10C98A5F9F4FFCC8CF93AD
:1004E000C091D700CC2329F1CBD880912A019091DB
:1004F0002B018C0F911D90932B0180932A018091E9
:10050000D7008C1B8093D7008091280190912901FE
:100510002091DC003091DD002817390730F001967A
:10052000909329018093280104C010922901109210
:100530002801CF9108951F920F920FB60F921124A8
:100540002F933F938F939F93F8942AB53BB5809157
:10055000D5009091D600820F931F9BBD8ABD8091DC
:10056000D7008F5F8093D70078949F918F913F91B0
:100570002F910F900FBE0F901F9018957F928F9222
:100580009F92AF92BF92CF92DF92EF92FF920F9322
:100590001F93CF93DF93EC018B018CE0B82E90E298
:1005A000A92EEE24EA94F12C209709F49CC08091A6
:1005B000D100882309F497C092DFCE0187DFF801CC
:1005C000A081BA9ED0011124A15DBE4F9C9195FBE4
:1005D000992790F9282F221F2227221F291374C040
:1005E0008F77B89E40011124B401645D7E4F6B018A
:1005F000DB018C9180FF68C0CE01019667DF782E09
:10060000CE01029663DF72FA222720F9F401E15D40
:10061000FE4F908120FB95F99083D60115961C9290
:100620001E921497472D46954725282F30E0972D89
:1006300096959695969540FD20C012963C932E93E4
:1006400011978081807E982B9083808185FF3AC0AE
:1006500011968D919C911297892BA1F111968D91F4
:100660009C91129715969C938E9314971296FC92D8
:10067000EE92119780818F7D15C0D60111964D9114
:100680005C91129770FE10C0BA01621B730B129638
:100690007C936E9311978081891B982F9F71808125
:1006A000807E892B80830EC0240F351F12963C93C9
:1006B0002E9311978081980F892F8F719081907E52
:1006C000982B9083A0922101CE010396FFDED82EB5
:1006D000CE010496FBDECD2DD0E0D82BC83FB1E093
:1006E000DB0708F461CFDF91CF911F910F91FF904D
:1006F000EF90DF90CF90BF90AF909F908F907F90C2
:1007000008950F931F93CF93DF938C01FC01C08159
:10071000CC0FCC0F82E08C0F90E0D8DED82F83E096
:100720008C0F90E0D3DE8F3F41F0B8018D2F90E029
:10073000DF91CF911F910F9121CFDF91CF911F9129
:100740000F910895DF92EF92FF920F931F93CF9333
:10075000DF931F92CDB7DEB719826CE0F62EEE2440
:10076000E39470E2D72E8981803108F062C0B7DE51
:10077000898190E0F89EF001F99EF00D1124DF01CF
:10078000A45DBE4F2C9120FD50C0E15DFE4F308135
:10079000DC01AA0FBB1FA059BF4F0D90BC91A02D2B
:1007A0002C91DC01A05ABF4F4C9135FB002700F97A
:1007B00010E030E002C0359527954A95E2F72170A8
:1007C0003327DC01A451BE4F0217130761F02081CB
:1007D00025FB222720F92095308120FB35F9308335
:1007E000EC92D09221012C912223F9F04C91F89EA9
:1007F0009001F99E300D1124F901E45DFE4F8181D5
:100800009281F901E15DFE4F50815F71242F30E04C
:1008100045E0880F991F4A95E1F7852B281739077E
:1008200020F01C92CE0101966CDF89818F5F898355
:100830009ACF0F90DF91CF911F910F91FF90EF9082
:10084000DF9008956F927F928F929F92AF92BF92A6
:10085000CF92DF92EF92FF920F931F93CF93DF938C
:100860008091D8009091D9008034910509F49AC004
:10087000C0E4D0E08091D8009091D900C817D90782
:1008800008F090C05E0184E0A80EB11CC5011EDE18
:100890008F3F09F085C00091D8001091D900C01792
:1008A000D10729F4C091D800D091D90079C078013E
:1008B00082E0E80EF11CC70109DE8F3F19F40550F4
:1008C0001109EDCFC80102DE682FCE0105DE480117
:1008D0008FEF881A980AC401F9DD682FCE010196BE
:1008E000FBDDC701F3DD682FCE010296F5DD38018F
:1008F00083E0680E711CC301E9DD682FCE01039609
:10090000EBDD680184E0C80ED11CC601DFDD682F75
:10091000C501E2DD6FEFC801DFDD6FEFC401DCDD93
:100920006FEFC701D9DD6FEFC301D6DD6FEFC601F1
:10093000D3DD1093D9000093D800C12CD12CC6016F
:100940000396C4DD782E56018FEF781611F145011C
:1009500082E0880E911CC401B9DDE72CF12CFE2C3D
:10096000EE24E82AE114F104A1F00E151F0559F454
:100970006C2FC401B1DD672DC5010396ADDD80E4A8
:10098000C82ED12C06C0C7010396A0DD782E5701D2
:10099000DBCF84E0C80ED11C80E4C816D10478F205
:1009A000259668CFDF91CF911F910F91FF90EF9027
:1009B000DF90CF90BF90AF909F908F907F906F907F
:1009C000089580E18093010181E008951F93CF9302
:1009D000DF931092D30040E050E01CE0E091D300A0
:1009E00081E08E0F8093D300149FD001159FB00D2E
:1009F0001124ED01C15DDE4F8881C881A45DBE4F29
:100A00003C919C91292F2170F0E0EF5FFE4F880F01
:100A1000880F880FC5FB662760F970E0EB01CC0FEB
:100A2000DD1FCC0FDD1F8C2B982F922B832F827014
:100A3000892B8083E091D30081E08E0F8093D300D7
:100A400011968D919C911297F0E0EF5FFE4F80839D
:100A50004F5F5F4F4031510509F68091D300DF9120
:100A6000CF911F91089510922101B0CFCF92DF92C4
:100A7000EF92FF920F931F93CF93DF93403108F0D3
:100A8000F0C0A42FB0E09CE0499F80011124A80190
:100A9000445D5E4FEA017881982F9170272F217075
:100AA00030E0C92FD0E02C173D0709F46AC0ED01F2
:100AB000C05ADF4F9D01220F331F992331F1488126
:100AC000F901E057FF4F00811181F8017081CC24BA
:100AD000C394D12C760102C0EE0CFF1C4A95E2F7BC
:100AE000A70140955095472340835881E901C0559F
:100AF000DF4F0990D881C02D4881960101C0220F97
:100B00005A95EAF7242B288330C0FA011282118209
:100B1000F801E15DFE4F4081407E408340814F7D82
:100B200040834881F901E055FF4F0190F081E02DAD
:100B3000708101E010E0780102C0EE0CFF1C4A95C4
:100B4000E2F7A70140955095472340835881F9016A
:100B5000E057FF4F0190F081E02D4081980101C0E6
:100B6000220F5A95EAF7242B20832CE02A9FF001CC
:100B70002B9FF00D1124E45DFE4F208190FB20F9A6
:100B8000208370E09CE09A9FF0019B9FF00D112460
:100B9000EF01C45DDE4F7A836983E15DFE4F908192
:100BA000907E282F269526952695922B90831D8240
:100BB0001C82988190FF1DC082FB882780F990815C
:100BC00080FB95F9908388818D7F8883808185FF64
:100BD00048C089819A81892B09F443C089819A810F
:100BE0009D838C838FEF90E09A83898380818F7DB2
:100BF00037C0FD01E05AFF4F9D01220F331F81FBDB
:100C0000442740F95081F90181FF0EC0E057FF4FA2
:100C10000190F081E02D208181E090E001C0880FFB
:100C20005A95EAF7822B10C0E055FF4F0190F081F2
:100C3000E02D208181E090E002C0880F991F5A9535
:100C4000E2F780959095822380838CE08A9FF00163
:100C50008B9FF00D1124E45DFE4F808140FB81F9F4
:100C60008083DF91CF911F910F91FF90EF90DF90E4
:100C7000CF900895BF92CF92DF92EF92FF920F93A1
:100C80001F93CF93DF931F92CDB7DEB7198200E099
:100C900010E08CE0D82E8981803170F5C80116DC17
:100CA000C82EC801019612DCB82EC80102960EDCCF
:100CB000F82EC80103960C5F1F4F08DCE82E8FEF5B
:100CC000E81202C080E019C049816B2D8C2DCEDE68
:100CD000E981DE9EF0011124E45DFE4F808180FDFC
:100CE00007C08F2D90E0BE016F5F7F4F9E2946DCCD
:100CF00089818F5F8983CFCF8FEF0F90DF91CF9165
:100D00001F910F91FF90EF90DF90CF90BF900895CB
:100D1000AF92BF92CF92DF92EF92FF920F931F9309
:100D2000CF93DF9360E970E0C0EBD0E080E7A82EBE
:100D300080E0B82E80E090E02CE0D22E41E050E040
:100D4000D89E9001D99E300D1124F901E45DFE4F2B
:100D500010811E7F10831081126010831282118215
:100D6000F901E15DFE4F2081207E20838C01005A35
:100D70001F4FD8012C91DB01ED90FD90BD01D701F3
:100D8000CC90DA0102C0AA0FBB1F2A95E2F79D01A1
:100D90002C29D7012C93D8012C91E990F990D701F7
:100DA000CC90DA0102C0AA0FBB1F2A95E2F79D0181
:100DB000209530952C21D7012C93D5012D913D9173
:100DC0005D01D9012C91D8011C9130E002C035950C
:100DD00027951A95E2F7308120FB35F9308301968B
:100DE0008031910509F0ACCF80E490E09093D90078
:100DF0008093D800C6EFD1E08091D8009091D900BF
:100E0000C817D90760F0CE0161DB8F3F31F0229621
:100E1000D093D900C093D80002C02597EDCF2ADF28
:100E200080E280932101DF91CF911F910F91FF907C
:100E3000EF90DF90CF90BF90AF900895CF92DF9268
:100E4000EF92FF921F93CF93DF93E091DE00E7389C
:100E500009F456C0E83809F455C0E53809F058C01F
:100E60008091D0008F3F11F481E026C0C091D00066
:100E700024E0C29FE001112421978FEF8093D000DE
:100E800010E005C0D0E0D82B209799F01F5F80912B
:100E9000D2009E012D5F3F4F79012F5F3F4F6901C7
:100EA000811770F0C70112DBC82FC6010FDB8F3F1F
:100EB00049F71092D20082E08093040184E051C08F
:100EC0001092D200CE0102DB80930101CE01019687
:100ED000FDDA80930201CE010296F8DA80930301D5
:100EE00010920401C601F2DAC82FC701EFDA2C2FE5
:100EF00030E0322F2227282B232B01F38FEFDCCF7A
:100F0000B9DE02C08091D1008093010181E029C047
:100F1000E03130F53CE0E39FF0011124DF01A15DF9
:100F2000BE4F9C913C91E45DFE4F808120812170F9
:100F3000990F990F990F35FB442740F950E0440F62
:100F4000551F440F551F492B942F922B8270892BCC
:100F500080930101818192818093020182E001C02E
:100F600080E0DF91CF911F91FF90EF90DF90CF90C5
:100F70000895BF92CF92DF92EF92FF920F931F934B
:100F8000CF93DF934091DE00842F90E0FC01E05886
:100F9000F109E930F10508F0E0C1E35AFF4F099487
:100FA00072D9882309F4E7C1C091E20024E0C29F0E
:100FB000E00111248E0101501109CE01039686DA59
:100FC000F82ECE01029682DA4FEFF41629F0C82FE0
:100FD000D0E0DF29209769F48091D8009091D90062
:100FE000892B81F480E490E09093D9008093D8001D
:100FF00009C0CE0104966ADAF82ECE01039666DAAD
:101000008E01E2CF6091D8007091D900CB01059696
:10101000893F914008F0AFC1C80103965DDA609145
:10102000D900C801049658DA6091E3008091D80095
:101030009091D9009C012F5F3F4F3093D9002093AE
:10104000D80047DA6091E4008091D8009091D900EF
:101050009C012F5F3F4F3093D9002093D80039DA9D
:101060006091E5008091D8009091D9009C012F5F9C
:101070003F4F3093D9002093D8002BDA8091D800CD
:101080009091D9009C012F5F3F4F3093D90020935E
:10109000D80060E01EDA8091D8009091D9009C01C0
:1010A0002F5F3F4F3093D9002093D80060E0DF914D
:1010B000CF911F910F91FF90EF90DF90CF90BF9055
:1010C00008CAE1D8882309F456C1C091E20084E03F
:1010D000C89FE0011124219710E08091E30081175F
:1010E000B8F0CE010496F2D9082F8F3F09F443C11E
:1010F000CE010396EBD9C02FD0E0DC2FCC27C82B34
:10110000CE010197883F914008F035C11F5FE5CFC0
:101110006091E400CE01E0D96091E500CE01019636
:10112000DBD96091E600CE01029650C0ACD888238E
:1011300009F421C1C091E200F4E0CF9FE001112445
:101140002197D12CE12CF12C8091E3008E010C5FD2
:101150001F4F8D15D8F0C801B9D9182F8F3F09F44A
:101160000AC1CE010396B2D9212F30E0322F2227B7
:10117000A901482BCA019C0121503109283F314067
:1011800008F0F9C0D3947E01EC01DECF6E0183E05C
:10119000C80ED11CC6019AD9682FC70103969CD9E5
:1011A000C80194D9682FC701049696D96FEFCE0174
:1011B00093D96FEFCE0101968FD96FEFCE010296D2
:1011C0008BD96FEFC60188D96FEFC801DF91CF913E
:1011D0001F910F91FF90EF90DF90CF90BF907CC94F
:1011E00052D8882309F4C7C00091E20094E0099F17
:1011F00080011124E8012396CE0168D9F82E0E5FF4
:101200001F4FC80163D9E82E60E0C80165D960E0CE
:10121000CE0162D92FEFF21609F4ADC0CE2DD0E089
:10122000DF29CE010197883F914008F0A4C08E01CC
:101230000C5F1F4FC8014AD9F82E6E01F3E0CF0EA4
:10124000D11CC60143D9E82E6FEFCE0145D96FEF0F
:10125000CE01019641D96FEFCE0102963DD96FEFD5
:10126000C6013AD96FEFC801D4CF8091E0008093D6
:10127000D0008091E1008093D2007DC004D8882303
:1012800009F479C0DF91CF911F910F91FF90EF90FA
:10129000DF90CF90BF90D6CAF6D7882309F46BC0F1
:1012A00000E010E0C0E0D0E09CE0B92EB09EC001AC
:1012B000B19E900D1124FC01E15DFE4F60813081F3
:1012C000AC01445D5E4F6A01FA0120818081982F54
:1012D0009170660F660F660F35FBEE24E0F8F12C77
:1012E000A701440F551F440F551F642B862F892BD0
:1012F000622F6270682BCE01EFD8F6016181728196
:10130000CE010196E9D86E01F4E0CF0ED11CC601E2
:10131000DDD88F3F41F460E0CE010296DDD860E079
:10132000CE010396D9D80F5F1F4FE601C034D10517
:1013300009F0BCCF20C08091E0008093D1000EED79
:1013400010E0C0E04C2FF801638182818FDB0E5FDB
:101350001F4FCF5FC031B1F70EC06091E1008091A7
:10136000E000DF91CF911F910F91FF90EF90DF9000
:10137000CF90BF907BCBDF91CF911F910F91FF90CA
:10138000EF90DF90CF90BF9008952F923F924F92B1
:101390005F926F927F928F929F92AF92BF92CF9205
:1013A000DF92EF92FF920F931F93CF93DF93E09022
:1013B000D700EE2009F448C1E0E9F0E020E030E099
:1013C0001CE0F12E6E2D70E000E2502E22242394BA
:1013D000312CF29ED001F39EB00D1124A45DBE4FBE
:1013E0008C9180FD0BC0D901A451BE4F8C918823F4
:1013F00009F423C18C918E0D8C931FC111968D9190
:101400009C911297892B51F016968D919C9117976C
:10141000860F971F17969C938E931697F29EA001A6
:10142000F39E500D1124EA01C15DDE4F88818F715A
:1014300009F451C0DA01A45DBE4F18968D919C91BC
:101440001997860F971F19969C938E931897189645
:10145000AD90BC90199788818F71482E88818F71CB
:1014600098819F71692E98819F71892E98819F71B3
:10147000C92E98819F71D92E98819F71992E98813C
:101480009F71792E0B2D112790E0840D911D860DF3
:10149000911D880D911D8C0D911D8D0D911D890D36
:1014A000911D870D911D08171907A8F019961C9218
:1014B0001E921897DA01A95CBE4F8C9182958170BB
:1014C0008F5FDA01AC5CBE4F13969C91139780FB43
:1014D00094F913969C93F29ED001F39EB00D1124C3
:1014E000CD01815D9E4FEC018881A901405A5F4F7B
:1014F00085FD13C0A45DBE4F11968D919C911297EE
:10150000892B89F116960D911C91179711968D9143
:101510009C9112970817190730F1F29EC001F39EB3
:10152000900D1124DC01A45DBE4F17961C921E92F3
:101530001697DC01A15DBE4FAC91AF7131F0DC01BB
:10154000A95CBE4F8C9184FF0EC0DA018C91A08102
:10155000B1814C91E10102C0CC0FDD1F8A95E2F709
:10156000CE01842B0FC0DA018C91A081B1814C9106
:10157000E10102C0CC0FDD1F8A95E2F7CE01809514
:10158000909584238C93F29EA001F39E500D11241C
:10159000DA01A45DBE4F14968D919C911597892B0D
:1015A00009F44BC0CA018A5C9E4F6C01EC01888132
:1015B0001981912F9F70860F971F9F708A010C5C75
:1015C0001E4FE8018A839F708B81807F892B8B83DC
:1015D000E6018881D9809D2D9F701496CD90DC9076
:1015E0001597C4E095958795CA95E1F78C159D05EB
:1015F00020F1E8011A828B81807F8B8311968D9177
:101600009C911297019712969C938E93119717961F
:101610001C921E92169711968D919C911297892B70
:1016200061F415961C921E921497DA01A15DBE4FCB
:101630008C9180628C93509221012F5F3F4F3296A4
:101640002031310509F0C5CEDF91CF911F910F9167
:10165000FF90EF90DF90CF90BF90AF909F908F90D2
:101660007F906F905F904F903F902F9008954AD554
:101670004FDB68D8FECFA5C9A9C9E0CB7ACCF3C9A6
:1016800084CEA1E21A2EAA1BBB1BFD010DC0AA1F0E
:10169000BB1FEE1FFF1FA217B307E407F50720F0DB
:1016A000A21BB30BE40BF50B661F771F881F991F56
:1016B0001A9469F760957095809590959B01AC019F
:1016C000BD01CF010895E199FECF9FBB8EBBE09A8B
:1016D00099278DB30895262FE199FECF9FBB8EBB2E
:1016E000E09A01970DB2021631F02DBB0FB6F894B7
:1016F000E29AE19A0FBE0895262FE199FECF9FBB93
:101700008EBB2DBB0FB6F894E29AE19A0FBE0196FC
:061710000895F894FFCFDC
:101716000001020303020100040506070403020197
:101726003000300030003000330033003300330027
:10173600300030003000300036003600360036000B
:1017460032003200320032003500350035003500F7
:1017560032003200320032003800380038003800DB
:1017660031003100310031003400340034003400DF
:1017760031003100310031003700370037003700C3
:02178600FF0161
:00000001FF
